:020000040800F2
:1000000000300020DD4F00082D5000082D50000862
:100010002D5000082D5000082D5000080000000051
:100020000000000000000000000000002D5000084B
:100030002D500008000000002D500008994B0008CA
:100040002D5000082D5000082D5000082D5000089C
:100050002D5000082D5000082D5000082D5000088C
:100060002D5000082D5000082D5000082D5000087C
:100070002D5000082D5000082D5000082D5000086C
:100080002D5000082D5000082D5000082D5000085C
:100090002D5000082D5000082D5000082D5000084C
:1000A0002D5000082D5000082D5000082D5000083C
:1000B0002D5000082D500008000000002D500008B1
:1000C0002D50000800000000000000002D50000826
:1000D000000000002D500008A94B00082D5000081A
:1000E0002D5000082D500008000000000000000006
:1000F0000000000000000000000000000000000000
:1001000000000000000000000000000000000000EF
:1001100000000000000000002D5000082D500008D5
:1001200000000000000000000000000000000000CF
:1001300000000000000000000000000000000000BF
:100140002D5000082D5000080000000000000000A5
:10015000000000000000000000000000000000009F
:10016000000000000000000000000000000000008F
:10017000000000000000000000000000000000007F
:08018000000000002D500008F2
:1001880010B5054C237833B9044B13B10448AFF3C9
:1001980000800123237010BDA8000020000000008B
:1001A80020790008084B10B51BB108480849AFF37F
:1001B80000800848036803B910BD074B002BFBD02B
:1001C800BDE81040184700BF000000002079000873
:1001D800AC000020A80000200000000081F00041D1
:1001E80002E000BF83F0004330B54FEA41044FEA14
:1001F800430594EA050F08BF90EA020F1FBF54EAAF
:10020800000C55EA020C7FEA645C7FEA655C00F04A
:10021800E2804FEA5454D4EB5555B8BF6D420CDD1B
:100228002C4480EA020281EA030382EA000083EA9E
:10023800010180EA020281EA0303362D88BF30BD3E
:1002480011F0004F4FEA01314FF4801C4CEA113194
:1002580002D0404261EB410113F0004F4FEA0333F3
:100268004CEA133302D0524263EB430394EA050F7E
:1002780000F0A780A4F10104D5F1200E0DDB02FAED
:100288000EFC22FA05F2801841F1000103FA0EF281
:10029800801843FA05F359410EE0A5F120050EF147
:1002A800200E012A03FA0EFC28BF4CF0020C43FA78
:1002B80005F3C01851EBE37101F0004507D54FF085
:1002C800000EDCF1000C7EEB00006EEB0101B1F5D5
:1002D800801F1BD3B1F5001F0CD349085FEA30001B
:1002E8004FEA3C0C04F101044FEA445212F5800F26
:1002F80080F09A80BCF1004F08BF5FEA500C50F1C3
:10030800000041EB045141EA050130BD5FEA4C0CA5
:10031800404141EB010111F4801FA4F10104E9D12E
:1003280091F0000F04BF01460020B1FA81F308BF25
:100338002033A3F10B03B3F120020CDA0C3208DDF1
:1003480002F1140CC2F10C0201FA0CF021FA02F1CC
:100358000CE002F11402D8BFC2F1200C01FA02F13C
:1003680020FA0CFCDCBF41EA0C019040E41AA2BF61
:1003780001EB0451294330BD6FEA04041F3C1CDA29
:100388000C340EDC04F11404C4F1200220FA04F049
:1003980001FA02F340EA030021FA04F345EA0301F3
:1003A80030BDC4F10C04C4F1200220FA02F001FAB5
:1003B80004F340EA0300294630BD21FA04F0294637
:1003C80030BD94F0000F83F4801306BF81F48011D0
:1003D8000134013D4EE77FEA645C18BF7FEA655C43
:1003E80029D094EA050F08BF90EA020F05D054EA15
:1003F800000C04BF1946104630BD91EA030F1EBF1A
:100408000021002030BD5FEA545C05D1400049411D
:1004180028BF41F0004130BD14F580043CBF01F510
:10042800801130BD01F0004545F0FE4141F47001F6
:100438004FF0000030BD7FEA645C1ABF19461046D1
:100448007FEA655C1CBF0B46024650EA013406BFD2
:1004580052EA033591EA030F41F4002130BD00BF91
:1004680090F0000F04BF0021704730B54FF480644E
:1004780004F132044FF000054FF0000150E700BFCF
:1004880090F0000F04BF0021704730B54FF480642E
:1004980004F1320410F0004548BF40424FF000011B
:1004A8003EE700BF42004FEAE2014FEA31014FEA5E
:1004B80002701FBF12F07F4393F07F4F81F06051AD
:1004C800704792F0000F14BF93F07F4F704730B51C
:1004D8004FF4607401F0004521F0004120E700BFAF
:1004E80050EA010208BF704730B54FF000050AE036
:1004F80050EA010208BF704730B511F0004502D537
:10050800404261EB41014FF4806404F132045FEA38
:10051800915C3FF4DCAE4FF003025FEADC0C18BFDD
:1005280003325FEADC0C18BF033202EBDC02C2F1D3
:10053800200300FA03FC20FA02F001FA03FE40EA65
:100548000E0021FA02F11444C1E600BF70B54FF065
:10055800FF0C4CF4E06C1CEA11541DBF1CEA135547
:1005680094EA0C0F95EA0C0F00F0DEF82C4481EAAF
:10057800030621EA4C5123EA4C5350EA013518BFCF
:1005880052EA033541F4801143F4801338D0A0FBBC
:1005980002CE4FF00005E1FB02E506F00042E0FB69
:1005A80003E54FF00006E1FB03569CF0000F18BF6F
:1005B8004EF0010EA4F1FF04B6F5007F64F5407417
:1005C80004D25FEA4E0E6D4146EB060642EAC621AA
:1005D80041EA55514FEAC52040EA5E504FEACE2E17
:1005E800B4F1FD0C88BFBCF5E06F1ED8BEF1004F1A
:1005F80008BF5FEA500E50F1000041EB045170BD96
:1006080006F0004646EA010140EA020081EA0301D9
:10061800B4EB5C04C2BFD4EB0C0541EA045170BDD5
:1006280041F480114FF0000E013C00F3AB8014F14F
:10063800360FDEBF002001F0004170BDC4F1000498
:10064800203C35DA0C341BDC04F11404C4F1200519
:1006580000FA05F320FA04F001FA05F240EA020074
:1006680001F0004221F0004110EBD37021FA04F6AA
:1006780042EB06015EEA430E08BF20EAD37070BD64
:10068800C4F10C04C4F1200500FA04F320FA05F0C3
:1006980001FA04F240EA020001F0004110EBD370C5
:1006A80041F100015EEA430E08BF20EAD37070BD35
:1006B800C4F1200500FA05F24EEA020E20FA04F30E
:1006C80001FA05F243EA020321FA04F001F00041BD
:1006D80021FA04F220EA020000EBD3705EEA430E2E
:1006E80008BF20EAD37070BD94F0000F0FD101F05D
:1006F8000046400041EB010111F4801F08BF013C96
:10070800F7D041EA060195F0000F18BF704703F0D3
:100718000046520043EB030313F4801F08BF013D5A
:10072800F7D043EA0603704794EA0C0F0CEA135516
:1007380018BF95EA0C0F0CD050EA410618BF52EAD0
:100748004306D1D181EA030101F000414FF00000D6
:1007580070BD50EA410606BF1046194652EA4306E4
:1007680019D094EA0C0F02D150EA013613D195EA58
:100778000C0F05D152EA03361CBF104619460AD1A0
:1007880081EA030101F0004141F0FE4141F47001AA
:100798004FF0000070BD41F0FE4141F4780170BD9A
:1007A80070B54FF0FF0C4CF4E06C1CEA11541DBFFF
:1007B8001CEA135594EA0C0F95EA0C0F00F0A7F801
:1007C800A4EB050481EA030E52EA03354FEA01312E
:1007D80000F088804FEA03334FF0805545EA131341
:1007E80043EA12634FEA022245EA111545EA106509
:1007F8004FEA00260EF000419D4208BF964244F1A0
:10080800FD0404F5407402D25B084FEA3202B61ABE
:1008180065EB03055B084FEA32024FF480104FF492
:10082800002CB6EB020E75EB030E22BFB61A754606
:1008380040EA0C005B084FEA3202B6EB020E75EB99
:10084800030E22BFB61A754640EA5C005B084FEA01
:100858003202B6EB020E75EB030E22BFB61A7546CE
:1008680040EA9C005B084FEA3202B6EB020E75EBD9
:10087800030E22BFB61A754640EADC0055EA060E9A
:1008880018D04FEA051545EA16754FEA06164FEADD
:10089800C30343EA52734FEAC2025FEA1C1CC0D189
:1008A80011F4801F0BD141EA00014FF000004FF016
:1008B800004CB6E711F4801F04BF01430020B4F1D7
:1008C800FD0C88BFBCF5E06F3FF6AFAEB5EB030C8F
:1008D80004BFB6EB020C5FEA500C50F1000041EB8C
:1008E800045170BD0EF0004E4EEA113114EB5C0459
:1008F800C2BFD4EB0C0541EA045170BD41F480112C
:100908004FF0000E013C90E645EA060E8DE60CEA33
:10091800135594EA0C0F08BF95EA0C0F3FF43BAF50
:1009280094EA0C0F0AD150EA01347FF434AF95EA07
:100938000C0F7FF425AF104619462CE795EA0C0FEB
:1009480006D152EA03353FF4FDAE1046194622E7B8
:1009580050EA410618BF52EA43067FF4C5AE50EA92
:1009680041047FF40DAF52EA43057FF4EBAE12E782
:100978004FF0FF3C06E000BF4FF0010C02E000BF63
:100988004FF0010C4DF804CD4FEA410C7FEA6C5C46
:100998004FEA430C18BF7FEA6C5C1BD001B050EAE9
:1009A800410C0CBF52EA430C91EA030F02BF90EAD4
:1009B800020F0020704710F1000F91EA030F58BF93
:1009C800994208BF90422CBFD8176FEAE37040F0F5
:1009D800010070474FEA410C7FEA6C5C02D150EA93
:1009E800013C07D14FEA430C7FEA6C5CD6D152EA4E
:1009F800033CD3D05DF8040B704700BF8446104613
:100A080062468C461946634600E000BF01B5FFF711
:100A1800B7FF002848BF10F1000F01BD4DF808EDE1
:100A2800FFF7F4FF0CBF012000205DF808FB00BFB2
:100A38004DF808EDFFF7EAFF34BF012000205DF80C
:100A480008FB00BF4DF808EDFFF7E0FF94BF012059
:100A580000205DF808FB00BF4DF808EDFFF7CEFF5A
:100A680094BF012000205DF808FB00BF4DF808ED99
:100A7800FFF7C4FF34BF012000205DF808FB00BF6A
:100A88004FEA410212F5001215D211D56FF47873AE
:100A9800B3EB625212D94FEAC12343F0004343EA51
:100AA800505311F0004F23FA02F018BF404270472C
:100AB8004FF00000704750EA013005D111F00040B6
:100AC80008BF6FF0004070474FF00000704700BF4C
:100AD80080B400AF1F4A1F4BD3F8883043F470032B
:100AE800C2F888301C4A1C4B1B6843F00103136092
:100AF8001949194B5A68194B13404B60164A164B43
:100B08001B6823F0847323F480331360124A124B5A
:100B18001B6823F4802313600F4A0F4B5B6823F490
:100B2800FE0353600C4A0C4BDB6A23F00F03D362BD
:100B38000949094B1A6B0A4B13400B63064B0022F9
:100B48009A60044B4FF000629A60BD465DF8047BE2
:100B5800704700BF00ED00E0001002400CC07FF8B5
:100B6800CCFC00FF80B500AF084A084B1B6843F077
:100B780010031360032000F02DFA002000F008F89D
:100B880003F0ACFE0023184680BD00BF00200240E1
:100B980080B582B000AF7860094B1B68094AA2FB98
:100BA80003239B09184600F049FA4FF0FF30796893
:100BB800002200F019FA002318460837BD4680BD08
:100BC80000000020D34D621080B400AF044B1B68B6
:100BD8000133034A1360BD465DF8047B704700BFCC
:100BE800D400002080B400AF034B1B681846BD46F4
:100BF8005DF8047B704700BFD400002080B584B046
:100C080000AF78600023FB600023BB607B68002B8B
:100C180001D1012312E17B6893F83930DBB2002B54
:100C280006D17B68002283F83820786803F098FEA4
:100C38007B68022283F839207B681B687A6812680F
:100C4800126822F002021A607B681B687A681268D0
:100C5800126842F001021A60FFF7C4FFB86010E0A2
:100C6800FFF7C0FF0246BB68D31A0A2B09D97B6875
:100C7800032283F839207B68002283F83820032375
:100C8800DCE07B681B685B6803F00103002BE7D09E
:100C98007B681B685B6803F00103002B00F0BD80D4
:100CA8007B689B69012B08D17B681B687A6812688E
:100CB800126842F080021A6007E07B681B687A6855
:100CC8001268126822F080021A607B68DB69012BC7
:100CD80008D17B681B687A681268126842F0400283
:100CE8001A6007E07B681B687A681268126822F04D
:100CF80040021A607B681B6A012B08D17B681B685D
:100D08007A681268126842F020021A6007E07B686D
:100D18001B687A681268126822F020021A607B68E1
:100D28005B6A012B08D17B681B687A6812681268B5
:100D380042F010021A6007E07B681B687A68126844
:100D4800126822F010021A607B689B6A012B08D196
:100D58007B681B687A681268126842F008021A6099
:100D680007E07B681B687A681268126822F008023C
:100D78001A607B68DB6A012B08D17B681B687A687C
:100D88001268126842F004021A6007E07B681B6868
:100D98007A681268126822F004021A607B681B687D
:100DA8007A6891687A68D26811437A68126911433F
:100DB8007A68526911437A685268013A0A43DA61DB
:100DC8007B681B687A681268126822F001021A6050
:100DD800FFF708FFB86010E0FFF704FF0246BB68A2
:100DE800D31A0A2B09D97B68032283F839207B6838
:100DF800002283F83820032320E07B681B685B68A7
:100E080003F00103002BE7D17B681B685B6803F0E4
:100E18000103002B01D10123FB60FB68012B08D1E2
:100E28007B680022DA637B68012283F8392000237B
:100E380004E07B68042283F8392001231846103720
:100E4800BD4680BD80B485B000AF78607B6803F094
:100E58000703FB600C4BDB68BB60BA684FF6FF0307
:100E68001340BB60FB681A02BB68134343F0BF63BF
:100E780043F40033BB60044ABB68D3601437BD46F3
:100E88005DF8047B704700BF00ED00E080B400AF60
:100E9800044BDB6803F4E0631B0A1846BD465DF8A3
:100EA800047B704700ED00E080B483B000AF0346D8
:100EB800FB71084997F907305B09FA7902F01F02BC
:100EC800012000FA02F241F823200C37BD465DF8F4
:100ED800047B704700E100E080B483B000AF0346B4
:100EE8003960FB7197F90730002B0BDA0D49FB7954
:100EF80003F00F03043B3A68D2B21201D2B20B449A
:100F08001A7609E0084997F907303A68D2B212010F
:100F1800D2B20B4483F800230C37BD465DF8047B3E
:100F2800704700BF00ED00E000E100E080B489B048
:100F380000AFF860B9607A60FB6803F00703FB61F3
:100F4800FB69C3F10703042B28BF0423BB61FB69BA
:100F58000433062B02D9FB69033B00E000237B61C5
:100F6800BB69012202FA03F35A1EBB681A407B6967
:100F78009A407B69012101FA03F3591E7B680B40F3
:100F8800134318462437BD465DF8047B704700BFFD
:100F980080B582B000AF78607B68013BB3F1807F99
:100FA80001D301230FE00A4A7B68013B53604FF0ED
:100FB800FF300F21FFF790FF054B00229A60044B8A
:100FC80007221A60002318460837BD4680BD00BFB7
:100FD80010E000E080B582B000AF78607868FFF775
:100FE80031FF0837BD4680BD80B586B000AF0346E7
:100FF800B9607A60FB7300237B61FFF747FF786174
:101008007869B9687A68FFF791FF024697F90F3057
:1010180018461146FFF760FF1837BD4680BD00BF70
:1010280080B582B000AF0346FB7197F907301846C8
:10103800FFF73AFF0837BD4680BD00BF80B582B0D4
:1010480000AF78607868FFF7A3FF034618460837B3
:10105800BD4680BD80B483B000AF78607B68042B48
:1010680006D1094A084B1B6843F00403136005E0E6
:10107800054A054B1B6823F0040313600C37BD4673
:101088005DF8047B704700BF10E000E080B500AF5A
:1010980000F002F880BD00BF80B400AFBD465DF827
:1010A800047B704780B487B000AF78603960002354
:1010B8007B610023FB6000233B614AE13B681A68BF
:1010C8007B69012101FA03F31340FB60FB68002BE5
:1010D80000F03C813B685B68022B03D03B685B688F
:1010E800122B22D17B69DA087B68083253F8223048
:1010F8003B617B6903F007039B001A460F2393406B
:10110800DB433A6913403B613B681B697A6902F02B
:101118000702920093403A6913433B617B69DA08FE
:101128007B680832396943F822107B681B683B6189
:101138007B695B001A4603239340DB433A691340FB
:101148003B613B685B6803F003037A695200934094
:101158003A6913433B617B683A691A603B685B688C
:10116800012B0BD03B685B68022B07D03B685B68A0
:10117800112B03D03B685B68122B2FD17B689B68CF
:101188003B617B695B001A4603239340DB433A6962
:1011980013403B613B68DB687A69520093403A69C7
:1011A80013433B617B683A699A607B685B683B6183
:1011B8007B69012202FA03F3DB433A6913403B617E
:1011C8003B685B6803F010031A097B6902FA03F3B2
:1011D8003A6913433B617B683A695A607B68DB680C
:1011E8003B617B695B001A4603239340DB433A6902
:1011F80013403B613B689B687A69520093403A69A7
:1012080013433B617B683A69DA603B685B6803F0CB
:101218008053002B00F09A80544A544B9B6943F04A
:1012280001039361514B9B6903F00103BB60BB68E9
:101238004F4A7B699B08023352F823303B617B6934
:1012480003F003039B001A460F239340DB433A69DC
:1012580013403B617B68B3F1904F13D07B68454ADC
:1012680093420DD07B68444A934207D07B68434A37
:10127800934201D1032306E0052304E0022302E0A0
:10128800012300E000237A6902F0030292009340F0
:101298003A6913433B6136497B699B0802333A69D3
:1012A80041F82320364B1B683B61FB68DB433A69F6
:1012B80013403B613B685B6803F48033002B03D029
:1012C8003A69FB6813433B612D4A3B6913602C4B19
:1012D8005B683B61FB68DB433A6913403B613B68F1
:1012E8005B6803F40033002B03D03A69FB681343AF
:1012F8003B61234A3B695360214B9B683B61FB6818
:10130800DB433A6913403B613B685B6803F4801335
:10131800002B03D03A69FB6813433B61184A3B69C9
:101328009360174BDB683B61FB68DB433A6913400A
:101338003B613B685B6803F40013002B03D03A69F8
:10134800FB6813433B610E4A3B69D3607B690133F9
:101358007B613B681A687B6922FA03F3002B7FF4F0
:10136800ADAE1C37BD465DF8047B704700100240E7
:10137800000001400004004800080048000C004834
:101388000004014080B483B000AF78600B467B80D6
:1013980013467B707B78002B03D07A887B689A6130
:1013A80002E07A887B689A620C37BD465DF8047B58
:1013B800704700BF80B5ADF5007D00AF3B1D1860DC
:1013C8000023C7F8F8313B1D1B681B6803F00103B5
:1013D800002B00F0C981AE4B5B6803F00C03042BB3
:1013E8000BD0AB4B5B6803F00C03082B78D1A84BF0
:1013F8005B6803F48033002B72D04FF40033C7F8D6
:10140800F431D7F8F43193FAA3F3C7F8F031D7F8E9
:10141800F031B3FA83F3DBB243F02003DBB2DBB283
:101428005B09DBB2012B02D1994B1B6835E04FF405
:101438000033C7F8EC31D7F8EC3193FAA3F3C7F8C7
:10144800E831D7F8E831B3FA83F3DBB243F020038D
:10145800DBB2DBB25B09DBB2022B02D18C4B1B6A1D
:101468001BE04FF40033C7F8E431D7F8E43193FABE
:10147800A3F3C7F8E031D7F8E031B3FA83F3DBB26E
:1014880043F02003DBB2DBB25B09DBB2042B02D1F1
:101498007F4B5B6801E07E4B5B6A4FF40032C7F814
:1014A800DC21D7F8DC2192FAA2F2C7F8D821D7F8C4
:1014B800D821B2FA82F2D2B242F02002D2B2D2B22B
:1014C80002F01F02D34003F00103002B07D03B1D9D
:1014D8001B685B68002B02D1012301F026B843E1A9
:1014E8003B1D1B685B68B3F5803F06D1684A684BB3
:1014F8001B6843F48033136030E03B1D1B685B6856
:10150800002B0CD1624A624B1B6823F480331360B2
:101518005F4A5F4B1B6823F4802313601EE03B1D6A
:101528001B685B68B3F5A02F0CD1594A584B1B6850
:1015380043F480231360564A554B1B6843F48033A9
:1015480013600BE0524A524B1B6823F4803313603C
:101558004F4A4F4B1B6823F4802313604C494C4B74
:10156800DB6A23F00F023B1D1B689B681343CB62A9
:101578003B1D1B685B68002B7AD0FFF733FBC7F86D
:10158800F8010AE0FFF72EFB0246D7F8F831D31A24
:10159800642B02D9032300F0C8BF4FF40033C7F807
:1015A800D431D7F8D43193FAA3F3C7F8D031D7F8A8
:1015B800D031B3FA83F3DBB243F02003DBB2DBB202
:1015C8005B09DBB2012B02D1314B1B6835E04FF4CC
:1015D8000033C7F8CC31D7F8CC3193FAA3F3C7F866
:1015E800C831D7F8C831B3FA83F3DBB243F020032C
:1015F800DBB2DBB25B09DBB2022B02D1244B1B6AE4
:101608001BE04FF40033C7F8C431D7F8C43193FA5C
:10161800A3F3C7F8C031D7F8C031B3FA83F3DBB20C
:1016280043F02003DBB2DBB25B09DBB2042B02D14F
:10163800174B5B6801E0164B5B6A4FF40032C7F842
:10164800BC21D7F8BC2192FAA2F2C7F8B821D7F882
:10165800B821B2FA82F2D2B242F02002D2B2D2B2A9
:1016680002F01F02D34003F00103002B8AD07BE075
:10167800FFF7B8FAC7F8F8010CE0FFF7B3FA02462B
:10168800D7F8F831D31A642B04D9032300F04DBFDF
:10169800001002404FF40033C7F8B431D7F8B43122
:1016A80093FAA3F3C7F8B031D7F8B031B3FA83F39C
:1016B800DBB243F02003DBB2DBB25B09DBB2012B08
:1016C80002D1B64B1B6835E04FF40033C7F8AC3194
:1016D800D7F8AC3193FAA3F3C7F8A831D7F8A831F3
:1016E800B3FA83F3DBB243F02003DBB2DBB25B096E
:1016F800DBB2022B02D1A94B1B6A1BE04FF400336B
:10170800C7F8A431D7F8A43193FAA3F3C7F8A031E6
:10171800D7F8A031B3FA83F3DBB243F02003DBB28E
:10172800DBB25B09DBB2042B02D19C4B5B6801E0A6
:101738009A4B5B6A4FF40032C7F89C21D7F89C217A
:1017480092FAA2F2C7F89821D7F89821B2FA82F251
:10175800D2B242F02002D2B2D2B202F01F02D3407B
:1017680003F00103002B88D13B1D1B681B6803F0A5
:101778000203002B00F0D481884B5B6803F00C0354
:10178800002B0DD0854B5B6803F00C03082B40F051
:101798008F80824B5B6803F48033002B40F0888095
:1017A8000223C7F89431D7F8943193FAA3F3C7F812
:1017B8009031D7F89031B3FA83F3DBB243F02003CA
:1017C800DBB2DBB25B09DBB2012B02D1734B1B68C6
:1017D80033E00223C7F88C31D7F88C3193FAA3F39E
:1017E800C7F88831D7F88831B3FA83F3DBB243F00E
:1017F8002003DBB2DBB25B09DBB2022B02D1674B01
:101808001B6A1AE00223C7F88431D7F8843193FAA7
:10181800A3F3C7F88031D7F88031B3FA83F3DBB28A
:1018280043F02003DBB2DBB25B09DBB2042B02D14D
:101838005A4B5B6801E0594B5B6A0222C7F87C216E
:10184800D7F87C2192FAA2F2C7F87821D7F8782144
:10185800B2FA82F2D2B242F02002D2B2D2B202F08E
:101868001F02D34003F00103002B07D03B1D1B6868
:101878001B69012B02D0012300F057BE4748474B94
:101888001B6823F0F8023B1D1B685969F823C7F849
:101898007431D7F8743193FAA3F3C7F87031D7F8D5
:1018A8007031B3FA83F301FA03F31343036037E1AA
:1018B8003B1D1B681B69002B00F0A7800123C7F89C
:1018C8006C31D7F86C3193FAA3F3C7F86831D7F8BD
:1018D8006831B3FA83F39B0003F1844303F584036F
:1018E8001A4601231360FFF77DF9C7F8F8010AE0EB
:1018F800FFF778F90246D7F8F831D31A022B02D944
:10190800032300F012BE0223C7F86431D7F864310C
:1019180093FAA3F3C7F86031D7F86031B3FA83F3C9
:10192800DBB243F02003DBB2DBB25B09DBB2012B95
:1019380002D11A4B1B6835E00223C7F85C31D7F88F
:101948005C3193FAA3F3C7F85831D7F85831B3FA92
:1019580083F3DBB243F02003DBB2DBB25B09DBB21B
:10196800022B02D10D4B1B6A1CE00223C7F854312D
:10197800D7F8543193FAA3F3C7F85031D7F8503158
:10198800B3FA83F3DBB243F02003DBB2DBB25B09CB
:10199800DBB2042B04D1014B5B6803E0001002406A
:1019A800C54B5B6A0222C7F84C21D7F84C2192FA42
:1019B800A2F2C7F84821D7F84821B2FA82F2D2B287
:1019C80042F02002D2B2D2B202F01F02D34003F09A
:1019D8000103002B8CD0B848B74B1B6823F0F802E2
:1019E8003B1D1B685969F823C7F84431D7F84431BF
:1019F80093FAA3F3C7F84031D7F84031B3FA83F329
:101A080001FA03F3134303608AE00123C7F83C316A
:101A1800D7F83C3193FAA3F3C7F83831D7F83831FF
:101A2800B3FA83F39B0003F1844303F584031A4656
:101A380000231360FFF7D6F8C7F8F8010AE0FFF7AC
:101A4800D1F80246D7F8F831D31A022B02D903236A
:101A580000F06BBD0223C7F83431D7F8343193FA5C
:101A6800A3F3C7F83031D7F83031B3FA83F3DBB2D8
:101A780043F02003DBB2DBB25B09DBB2012B02D1FE
:101A88008D4B1B6833E00223C7F82C31D7F82C3173
:101A980093FAA3F3C7F82831D7F82831B3FA83F3B8
:101AA800DBB243F02003DBB2DBB25B09DBB2022B13
:101AB80002D1814B1B6A1AE00223C7F82431D7F8F8
:101AC800243193FAA3F3C7F82031D7F82031B3FAB9
:101AD80083F3DBB243F02003DBB2DBB25B09DBB29A
:101AE800042B02D1744B5B6801E0734B5B6A0222E2
:101AF800C7F81C21D7F81C2192FAA2F2C7F81821BE
:101B0800D7F81821B2FA82F2D2B242F02002D2B249
:101B1800D2B202F01F02D34003F00103002B8ED192
:101B28003B1D1B681B6803F00803002B00F03F8176
:101B38003B1D1B689B69002B00F095800123C7F8AB
:101B48001431D7F8143193FAA3F3C7F81031D7F842
:101B58001031B3FA83F39B001A46584B13441A46C4
:101B680001231360FFF73EF8C7F8F8010AE0FFF712
:101B780039F80246D7F8F831D31A022B02D90323D1
:101B880000F0D3BC0223C7F80C31D7F80C3193FA14
:101B9800A3F3C7F80831D7F80831B3FA83F3DBB2F7
:101BA80043F06003DBB2DBB25B09DBB2012B02D18D
:101BB800414B1B6839E00223C7F80431D7F80431D8
:101BC80093FAA3F207F580731A6007F580731B6810
:101BD800B3FA83F3DBB243F06003DBB2DBB25B0939
:101BE800DBB2022B02D1344B1B6A1EE007F1FC0367
:101BF80002221A6007F1FC031B6893FAA3F207F1AB
:101C0800F8031A6007F1F8031B68B3FA83F3DBB231
:101C180043F06003DBB2DBB25B09DBB2042B02D119
:101C2800254B5B6801E0244B5B6A07F1F402022153
:101C3800116007F1F402126892FAA2F107F1F002BA
:101C4800116007F1F0021268B2FA82F2D2B242F0E1
:101C58006002D2B2D2B202F01F02D34003F00103F5
:101C6800002B84D0A3E007F1EC0301221A6007F1EE
:101C7800EC031B6893FAA3F207F1E8031A6007F173
:101C8800E8031B68B3FA83F39B001A460B4B134413
:101C98001A4600231360FEF7A5FFC7F8F8010FE006
:101CA800FEF7A0FF0246D7F8F831D31A022B07D95E
:101CB800032300F03ABC00BF0010024080044242F7
:101CC80007F1E40302221A6007F1E4031B6893FAA0
:101CD800A3F207F1E0031A6007F1E0031B68B3FA07
:101CE80083F3DBB243F06003DBB2DBB25B09DBB248
:101CF800012B02D1A54B1B683BE007F1DC03022254
:101D08001A6007F1DC031B6893FAA3F207F1D80302
:101D18001A6007F1D8031B68B3FA83F3DBB243F008
:101D28006003DBB2DBB25B09DBB2022B02D1974B5B
:101D38001B6A1EE007F1D40302221A6007F1D403DC
:101D48001B6893FAA3F207F1D0031A6007F1D003D6
:101D58001B68B3FA83F3DBB243F06003DBB2DBB298
:101D68005B09DBB2042B02D1884B5B6801E0874B2F
:101D78005B6A07F1CC020221116007F1CC021268FC
:101D880092FAA2F107F1C802116007F1C8021268BD
:101D9800B2FA82F2D2B242F06002D2B2D2B202F009
:101DA8001F02D34003F00103002B7FF479AF3B1DE2
:101DB8001B681B6803F00403002B00F09E810023BE
:101DC80087F8FF31714BDB6903F08053002B12D188
:101DD8006E4A6E4BDB6943F08053D3616B4BDB6912
:101DE80003F0805207F10C031A6007F10C031B681B
:101DF800012387F8FF31664B1B6803F48073002BBF
:101E08001AD1634A624B1B6843F480731360FEF770
:101E1800E9FEC7F8F80109E0FEF7E4FE0246D7F844
:101E2800F831D31A642B01D903237EE3584B1B687E
:101E380003F48073002BEFD03B1D1B68DB68012B7C
:101E480006D1524A514B1B6A43F0010313622FE03B
:101E58003B1D1B68DB68002B0CD14C4A4B4B1B6AA3
:101E680023F001031362494A484B1B6A23F0040319
:101E780013621DE03B1D1B68DB68052B0CD1434A30
:101E8800424B1B6A43F004031362404A3F4B1B6AF0
:101E980043F0010313620BE03C4A3C4B1B6A23F0FE
:101EA80001031362394A394B1B6A23F00403136296
:101EB8003B1D1B68DB68002B00F08D80FEF792FE4F
:101EC800C7F8F8010BE0FEF78DFE0246D7F8F831A7
:101ED800D31A41F28832934201D9032325E307F14B
:101EE800C40302221A6007F1C4031B6893FAA3F221
:101EF80007F1C0031A6007F1C0031B68B3FA83F344
:101F0800DBB243F04003DBB2DBB25B09DBB2012B8F
:101F180002D11E4B1B683FE007F1BC0302221A6086
:101F280007F1BC031B6893FAA3F207F1B8031A6020
:101F380007F1B8031B68B3FA83F3DBB243F040033D
:101F4800DBB2DBB25B09DBB2022B02D10F4B1B6A9F
:101F580022E007F1B40302221A6007F1B4031B68F8
:101F680093FAA3F207F1B0031A6007F1B0031B68F4
:101F7800B3FA83F3DBB243F04003DBB2DBB25B09B5
:101F8800DBB2042B06D1014B5B6805E00010024070
:101F980000700040A44B5B6A07F1AC02022111609B
:101FA80007F1AC02126892FAA2F107F1A8021160D7
:101FB80007F1A8021268B2FA82F2D2B242F04002E5
:101FC800D2B2D2B202F01F02D34003F00103002BB9
:101FD8003FF479AF87E0FEF705FEC7F8F8010BE09C
:101FE800FEF700FE0246D7F8F831D31A41F28832DC
:101FF800934201D9032398E207F1A40302221A604D
:1020080007F1A4031B6893FAA3F207F1A0031A606F
:1020180007F1A0031B68B3FA83F3DBB243F0400374
:10202800DBB2DBB25B09DBB2012B02D17E4B1B6852
:102038003BE007F19C0302221A6007F19C031B682E
:1020480093FAA3F207F198031A6007F198031B6843
:10205800B3FA83F3DBB243F04003DBB2DBB25B09D4
:10206800DBB2022B02D1704B1B6A1EE007F194030E
:1020780002221A6007F194031B6893FAA3F207F18E
:1020880090031A6007F190031B68B3FA83F3DBB27D
:1020980043F04003DBB2DBB25B09DBB2042B02D1B5
:1020A800614B5B6801E0604B5B6A07F18C020221BF
:1020B800116007F18C02126892FAA2F107F1880206
:1020C800116007F188021268B2FA82F2D2B242F0C5
:1020D8004002D2B2D2B202F01F02D34003F0010391
:1020E800002B7FF47DAF97F8FF31012B05D14E4AC5
:1020F8004D4BDB6923F08053D3613B1D1B68DB69C3
:10210800002B00F01182484B5B6803F00C03082B8E
:1021180000F005823B1D1B68DB69022B40F05A81E9
:1021280007F184034FF080721A6007F184031B687B
:1021380093FAA3F207F180031A6007F180031B6882
:10214800B3FA83F39B0003F1844303F584031A462F
:1021580000231360FEF746FDC7F8F80109E0FEF713
:1021680041FD0246D7F8F831D31A022B01D90323CF
:10217800DBE107F17C034FF000721A6007F17C0382
:102188001B6893FAA3F207F178031A6007F1780342
:102198001B68B3FA83F3DBB243F02003DBB2DBB294
:1021A8005B09DBB2012B02D11F4B1B6840E007F132
:1021B80074034FF000721A6007F174031B6893FAF6
:1021C800A3F207F170031A6007F170031B68B3FAF2
:1021D80083F3DBB243F02003DBB2DBB25B09DBB293
:1021E800022B02D1104B1B6A22E007F16C034FF05F
:1021F80000721A6007F16C031B6893FAA3F207F1E7
:1022080068031A6007F168031B68B3FA83F3DBB24B
:1022180043F02003DBB2DBB25B09DBB2042B05D150
:10222800014B5B6804E000BF00100240BD4B5B6AD5
:1022380007F164024FF00071116007F1640212683F
:1022480092FAA2F107F16002116007F160021268C8
:10225800B2FA82F2D2B242F02002D2B2D2B202F084
:102268001F02D34003F00103002B7FF478AFAD4881
:10227800AC4B5B6823F474123B1D1B68596A3B1D09
:102288001B681B6A0B431343436007F15C034FF061
:1022980080721A6007F15C031B6893FAA3F207F1D6
:1022A80058031A6007F158031B68B3FA83F39B00BD
:1022B80003F1844303F584031A4601231360FEF7F0
:1022C80091FCC7F8F80109E0FEF78CFC0246D7F844
:1022D800F831D31A022B01D9032326E107F154035D
:1022E8004FF000721A6007F154031B6893FAA3F2C7
:1022F80007F150031A6007F150031B68B3FA83F320
:10230800DBB243F02003DBB2DBB25B09DBB2012BAB
:1023180002D1844B1B683DE007F14C034FF000727B
:102328001A6007F14C031B6893FAA3F207F14803FC
:102338001A6007F148031B68B3FA83F3DBB243F072
:102348002003DBB2DBB25B09DBB2022B02D1754B97
:102358001B6A1FE007F144034FF000721A6007F18F
:1023680044031B6893FAA3F207F140031A6007F1CC
:1023780040031B68B3FA83F3DBB243F02003DBB2FC
:10238800DBB25B09DBB2042B02D1664B5B6801E070
:10239800644B5B6A07F13C024FF00071116007F172
:1023A8003C02126892FAA2F107F13802116007F1B3
:1023B80038021268B2FA82F2D2B242F02002D2B2E5
:1023C800D2B202F01F02D34003F00103002B3FF406
:1023D8007BAFA9E007F134034FF080721A6007F170
:1023E80034031B6893FAA3F207F130031A6007F16C
:1023F80030031B68B3FA83F39B0003F1844303F5AE
:1024080084031A4600231360FEF7ECFBC7F8F801B3
:1024180009E0FEF7E7FB0246D7F8F831D31A022B9A
:1024280001D9032381E007F12C034FF000721A60F1
:1024380007F12C031B6893FAA3F207F128031A602B
:1024480007F128031B68B3FA83F3DBB243F02003D8
:10245800DBB2DBB25B09DBB2012B02D1314B1B686B
:102468003DE007F124034FF000721A6007F12403DE
:102478001B6893FAA3F207F120031A6007F12003FF
:102488001B68B3FA83F3DBB243F02003DBB2DBB2A1
:102498005B09DBB2022B02D1224B1B6A1FE007F15A
:1024A8001C034FF000721A6007F11C031B6893FAB3
:1024B800A3F207F118031A6007F118031B68B3FAAF
:1024C80083F3DBB243F02003DBB2DBB25B09DBB2A0
:1024D800042B02D1134B5B6801E0124B5B6A07F1D6
:1024E80014024FF00071116007F11402126892FA99
:1024F800A2F107F11002116007F110021268B2FA96
:1025080082F2D2B242F02002D2B2D2B202F01F025C
:10251800D34003F00103002B7FF47BAF04E00123D9
:1025280003E000BF001002400023184607F50077BB
:10253800BD4680BD80B59EB000AF7860396000238D
:102548007B67A34B1B6803F007023B689A4210D2D3
:102558009F499F4B1B6823F007023B6813430B609E
:102568009B4B1B6803F007023B689A4201D001238A
:10257800D1E17B681B6803F00203002B08D0954962
:10258800944B5B6823F0F0027B689B6813434B60B5
:102598007B681B6803F00103002B00F069817B68EE
:1025A8005B68012B5CD14FF400333B673B6F93FAB8
:1025B800A3F3FB66FB6EB3FA83F3DBB243F02003AD
:1025C800DBB2DBB25B09DBB2012B02D1814B1B68AA
:1025D8002DE04FF40033BB66BB6E93FAA3F37B6622
:1025E8007B6EB3FA83F3DBB243F02003DBB2DBB2DA
:1025F8005B09DBB2022B02D1764B1B6A17E04FF462
:1026080000333B663B6E93FAA3F3FB65FB6DB3FAAD
:1026180083F3DBB243F02003DBB2DBB25B09DBB24E
:10262800042B02D16B4B5B6801E06A4B5B6A4FF489
:102638000032BA65BA6D92FAA2F27A657A6DB2FA88
:1026480082F2D2B242F02002D2B2D2B202F01F021B
:10265800D34003F00103002B40F0BE8001235AE170
:102668007B685B68022B5BD14FF000733B653B6D69
:1026780093FAA3F3FB64FB6CB3FA83F3DBB243F086
:102688002003DBB2DBB25B09DBB2012B02D1514B79
:102698001B682DE04FF00073BB64BB6C93FAA3F387
:1026A8007B647B6CB3FA83F3DBB243F02003DBB2C9
:1026B800DBB25B09DBB2022B02D1464B1B6A17E087
:1026C8004FF000733B643B6C93FAA3F3FB63FB6B23
:1026D800B3FA83F3DBB243F02003DBB2DBB25B096E
:1026E800DBB2042B02D13B4B5B6801E0394B5B6AE0
:1026F8004FF00072BA63BA6B92FAA2F27A637A6BFD
:10270800B2FA82F2D2B242F02002D2B2D2B202F0CF
:102718001F02D34003F00103002B5DD10123FAE02F
:1027280002233B633B6B93FAA3F3FB62FB6AB3FAA6
:1027380083F3DBB243F02003DBB2DBB25B09DBB22D
:10274800012B02D1234B1B682BE00223BB62BB6A1F
:1027580093FAA3F37B627B6AB3FA83F3DBB243F0A9
:102768002003DBB2DBB25B09DBB2022B02D1194BCF
:102778001B6A16E002233B623B6A93FAA3F3FB61F0
:10278800FB69B3FA83F3DBB243F02003DBB2DBB2BD
:102798005B09DBB2042B02D10E4B5B6801E00D4BE9
:1027A8005B6A0222BA61BA6992FAA2F27A617A691C
:1027B800B2FA82F2D2B242F02002D2B2D2B202F01F
:1027C8001F02D34003F00103002B05D10123A2E02F
:1027D80000200240001002405149514B5B6823F031
:1027E80003027B685B6813434B60FEF7FBF978676D
:1027F8007B685B68012B12D10AE0FEF7F3F9024609
:102808007B6FD31A41F28832934201D9032382E0C5
:10281800434B5B6803F00C03042BEED128E07B6884
:102828005B68022B12D10AE0FEF7DCF902467B6FE7
:10283800D31A41F28832934201D903236BE0384B13
:102848005B6803F00C03082BEED111E00AE0FEF7F9
:10285800C9F902467B6FD31A41F28832934201D9F3
:10286800032358E02E4B5B6803F00C03002BEED1DA
:102878002C4B1B6803F007023B689A4210D9294980
:10288800284B1B6823F007023B6813430B60254B5A
:102898001B6803F007023B689A4201D001233AE023
:1028A8007B681B6803F00403002B08D01C491C4BF1
:1028B8005B6823F4E0627B68DB6813434B607B68EA
:1028C8001B6803F00803002B09D01549144B5B68FB
:1028D80023F460527B681B69DB0013434B6000F0F4
:1028E80027F801460E4B5B6803F0F002F0233B61CA
:1028F8003B6993FAA3F3FB60FB68B3FA83F322FA0C
:1029080003F3094AD35C21FA03F3084A1360002051
:10291800FEF73EF9002318467837BD4680BD00BF54
:1029280000100240002002405479000800000020F6
:1029380080B48BB000AF0023FB610023BB61002390
:102948007B6200237B6100233B62294B5B68FB6150
:10295800FB6903F00C03042B02D0082B03D03CE0E6
:10296800244B3B623CE0FB6903F470124FF4701394
:102978003B613B6993FAA3F3FB60FB68B3FA83F30B
:1029880022FA03F31C4AD35C7B61194BDB6A03F020
:102998000F020F23BB60BB6893FAA3F37B607B68CD
:1029A800B3FA83F322FA03F3144AD35CBB61FB69DD
:1029B80003F48033002B08D00E4ABB69B2FBF3F353
:1029C8007A6902FB03F37B6204E07B690C4A02FB31
:1029D80003F37B627B6A3B6202E0064B3B6200BF0B
:1029E8003B6A18462C37BD465DF8047B704700BF2C
:1029F8000010024000127A006C7900087C79000807
:102A080000093D0080B400AF034B1B681846BD4663
:102A18005DF8047B704700BF0000002080B582B0DD
:102A280000AFFFF7EFFF01460B4B5B6803F4E06272
:102A38004FF4E0637B607B6893FAA3F33B603B68E9
:102A4800B3FA83F322FA03F3044AD35C21FA03F3BB
:102A580018460837BD4680BD00100240647900085A
:102A680080B582B000AFFFF7CDFF01460B4B5B6826
:102A780003F460524FF460537B607B6893FAA3F3CE
:102A88003B603B68B3FA83F322FA03F3044AD35C4E
:102A980021FA03F318460837BD4680BD00100240EE
:102AA8006479000880B582B000AF78607B68002B3D
:102AB80001D101231DE07B6893F83930DBB2002B8C
:102AC80006D17B68002283F83820786801F0C6FFB9
:102AD8007B68022283F839207B681A687B68043394
:102AE8001046194600F01AF97B68012283F839204C
:102AF800002318460837BD4680BD00BF80B582B0A8
:102B080000AF78607B68002B01D101231DE07B6852
:102B180093F83930DBB2002B06D17B68002283F8AA
:102B28003820786800F016F87B68022283F839208C
:102B38007B681A687B6804331046194600F0EEF883
:102B48007B68012283F83920002318460837BD46E0
:102B580080BD00BF80B483B000AF78600C37BD463D
:102B68005DF8047B704700BF80B582B000AF786025
:102B780039607B681B6818463968012200F03CFB05
:102B88007B681B68154A93420ED07B681B68144A01
:102B9800934209D07B681B68124A934204D07B6831
:102BA8001B68114A934201D1012300E00023002B46
:102BB80007D07B681B687A681268526C42F400423E
:102BC8005A647B681B687A681268126842F00102CE
:102BD8001A60002318460837BD4680BD002C014006
:102BE80000400140004401400048014080B586B0E3
:102BF80000AF7860396000237B6100233B610023CC
:102C0800FB607B68002B01D1012383E07B6893F88C
:102C18003930DBB2002B06D17B68002283F83820DC
:102C2800786801F0CBFE7B68022283F839207B6844
:102C38001A687B681B689B6823F4803323F00703BA
:102C480093607B681A687B6804331046194600F065
:102C580065F87B681B689B687B617B681B689B6960
:102C68003B617B681B681B6AFB603B681B687A6971
:102C780013437B613B6923F4407323F003033B61F7
:102C88003B689A683B689B691B0213433A69134384
:102C98003B613B6923F4406323F00C033B613B69D0
:102CA80023F4704323F0F0033B613B68DA683B6828
:102CB800DB691B0213433A6913433B613B681B6999
:102CC8001A013B681B6A1B0313433A6913433B61B0
:102CD800FB6823F02203FB60FB6823F08803FB609A
:102CE8003B685A683B685B691B011343FA681343E6
:102CF800FB607B681B687A699A607B681B683A6925
:102D08009A617B681B68FA681A627B68012283F8FB
:102D18003920002318461837BD4680BD80B485B0D9
:102D280000AF786039600023FB607B681B68FB603C
:102D38007B682E4A934207D07B68B3F1804F03D05B
:102D48007B682B4A934208D1FB6823F07003FB6031
:102D58003B685B68FA681343FB607B68234A9342CD
:102D680013D07B68B3F1804F0FD07B68204A934221
:102D78000BD07B681F4A934207D07B681E4A934258
:102D880003D07B681D4A934208D1FB6823F4407343
:102D9800FB603B68DB68FA681343FB607B68FA6892
:102DA8001A603B689A687B68DA623B681A687B68D5
:102DB8009A627B680D4A93420BD07B680D4A934216
:102DC80007D07B680C4A934203D07B680B4A934236
:102DD80003D13B681A697B681A637B6801225A61D0
:102DE8001437BD465DF8047B704700BF002C0140D6
:102DF80000040040004001400044014000480140F8
:102E080080B487B000AF786039600023FB6000238E
:102E18007B6100233B617B681B6A23F001027B68AE
:102E28001A627B681B6A7B617B685B683B617B68B5
:102E38009B69FB60FB6823F4803323F07003FB601D
:102E4800FB6823F00303FB603B681B68FA681343C5
:102E5800FB607B6923F002037B613B689B687A69AE
:102E680013437B617B68284A93420BD07B68274ACF
:102E7800934207D07B68264A934203D07B68254A51
:102E880093420CD17B6923F008037B613B68DB68C4
:102E98007A6913437B617B6923F004037B617B6858
:102EA800194A93420BD07B68184A934207D07B6833
:102EB800174A934203D07B68164A934211D13B6963
:102EC80023F480733B613B6923F400733B613B68E7
:102ED8005B693A6913433B613B689B693A691343F1
:102EE8003B617B683A695A607B68FA689A613B681B
:102EF8005A687B685A637B687A691A621C37BD46D0
:102F08005DF8047B704700BF002C01400040014081
:102F1800004401400048014080B487B000AF7860A9
:102F280039600023FB6000237B6100233B617B68E1
:102F38001B6A23F010027B681A627B681B6A7B613C
:102F48007B685B683B617B689B69FB60FB6823F07F
:102F5800807323F4E043FB60FB6823F44073FB6059
:102F68003B681B681B02FA681343FB607B6923F00C
:102F780020037B613B689B681B017A6913437B6173
:102F88007B68234A93420DD17B6923F080037B61E0
:102F98003B68DB681B017A6913437B617B6923F01B
:102FA80040037B617B681A4A93420BD07B68194ABD
:102FB800934207D07B68184A934203D07B68174A2C
:102FC800934213D13B6923F480633B613B6923F44B
:102FD80000633B613B685B699B003A6913433B6153
:102FE8003B689B699B003A6913433B617B683A697C
:102FF8005A607B68FA689A613B685A687B689A638A
:103008007B687A691A621C37BD465DF8047B704795
:10301800002C0140004001400044014000480140AC
:1030280080B487B000AF786039600023FB6000236C
:103038007B6100233B617B681B6A23F480727B6899
:103048001A627B681B6A7B617B685B683B617B6893
:10305800DB69FB60FB6823F4803323F07003FB60BB
:10306800FB6823F00303FB603B681B68FA681343A3
:10307800FB607B6923F400737B613B689B681B02E0
:103088007A6913437B617B68234A93420DD17B693C
:1030980023F400637B613B68DB681B027A69134396
:1030A8007B617B6923F480637B617B681A4A934266
:1030B8000BD07B68194A934207D07B68184A934221
:1030C80003D07B68174A934213D13B6923F480539A
:1030D8003B613B6923F400533B613B685B691B011F
:1030E8003A6913433B613B689B691B013A69134387
:1030F8003B617B683A695A607B68FA68DA613B68C9
:103108005A687B68DA637B687A691A621C37BD463D
:103118005DF8047B704700BF002C0140004001406F
:10312800004401400048014080B487B000AF786097
:10313800396000233B610023FB6000237B617B68CF
:103148001B6A23F480527B681A627B681B6AFB60E7
:103158007B685B687B617B68DB693B613B6923F06B
:10316800807323F4E0433B613B6923F440733B6184
:103178003B681B681B023A6913433B61FB6823F4F5
:103188000053FB603B689B681B03FA681343FB60B2
:103198007B68154A93420BD07B68144A934207D048
:1031A8007B68134A934203D07B68124A934209D141
:1031B8007B6923F480437B613B685B699B017A6987
:1031C80013437B617B687A695A607B683A69DA6184
:1031D8003B685A687B681A647B68FA681A621C370D
:1031E800BD465DF8047B7047002C0140004001405B
:1031F800004401400048014080B487B000AFF86047
:10320800B9607A6000237B61BB68012202FA03F38C
:103218007B61FB681A6A7B69DB431A40FB681A62A8
:10322800FB681A6ABB68796801FA03F31A43FB68FA
:103238001A621C37BD465DF8047B704780B584B0C0
:1032480000AFF860B9607A60FB6893F83830012BFA
:1032580001D1022305E1FB68012283F83820FB68CD
:10326800022283F839207B68142B00F2F08001A237
:1032780052F823F0D13200085734000857340008B8
:103288005734000811330008573400085734000831
:1032980057340008533300085734000857340008DF
:1032A800573400089333000857340008573400088F
:1032B80057340008D533000857340008573400083D
:1032C8005734000815340008FB681B681846B968AD
:1032D800FFF796FDFB681B68FA681268926942F06E
:1032E80008029A61FB681B68FA681268926922F002
:1032F80004029A61FB681B68FA6812689169BA68E7
:1033080012690A439A61A3E0FB681B681846B9680A
:10331800FFF702FEFB681B68FA681268926942F4BC
:1033280000629A61FB681B68FA681268926922F465
:1033380080629A61FB681B68FA6812689169BA68CA
:10334800126912020A439A6182E0FB681B681846F8
:10335800B968FFF765FEFB681B68FA681268D269EE
:1033680042F00802DA61FB681B68FA681268D269E1
:1033780022F00402DA61FB681B68FA681268D169F6
:10338800BA6812690A43DA6162E0FB681B6818468A
:10339800B968FFF7C9FEFB681B68FA681268D2694A
:1033A80042F40062DA61FB681B68FA681268D26945
:1033B80022F48062DA61FB681B68FA681268D169D6
:1033C800BA68126912020A43DA6141E0FB681B68B5
:1033D8001846B96800F02CF9FB681B68FA6812688F
:1033E800526D42F008025A65FB681B68FA68126859
:1033F800526D22F004025A65FB681B68FA6812686D
:10340800516DBA6812690A435A6521E0FB681B6866
:103418001846B96800F070F9FB681B68FA6812680A
:10342800526D42F400625A65FB681B68FA681268BC
:10343800526D22F480625A65FB681B68FA6812684C
:10344800516DBA68126912020A435A6500E000BF5A
:10345800FB68012283F83920FB68002283F83820B2
:10346800002318461037BD4680BD00BF80B485B024
:1034780000AF786039607B6893F83830012B01D150
:10348800022338E07B68012283F838207B681B68B8
:103498005B68FB607B681B689B68BB607B681B681C
:1034A800184A934208D1FB6823F47003FB603B6819
:1034B8005B68FA681343FB60FB6823F07003FB60EA
:1034C8003B681B68FA681343FB60BB6823F0800302
:1034D800BB603B689B68BA681343BB607B681B682A
:1034E800FA685A607B681B68BA689A607B68002231
:1034F80083F83820002318461437BD465DF8047B4E
:10350800704700BF002C014080B485B000AF7860E0
:1035180039600023FB607B6893F83830012B01D1B8
:1035280002237CE07B68012283F838207B681B68D3
:103538003E4A93423DD1FB6803F07C43FB603B6805
:10354800DB68FA681343FB603B689B68FA681343BF
:10355800FB603B685B68FA681343FB603B681B6869
:10356800FA681343FB603B681B69FA681343FB6006
:103578003B685B69FA681343FB603B689B6AFA68BF
:103588001343FB603B689B691B04FA681343FB60A9
:103598003B685B6A1B05FA681343FB603B68DB69A1
:1035A800FA681343FB603B681B6AFA681343FB60C5
:1035B8002CE0FB681B0D1B05FB603B68DB68FA68A9
:1035C8001343FB603B689B68FA681343FB603B68E6
:1035D8005B68FA681343FB603B681B68FA6813432F
:1035E800FB603B681B69FA681343FB603B685B69D7
:1035F800FA681343FB603B689B6AFA681343FB60F5
:103608003B689B691B04FA681343FB607B681B6873
:10361800FA685A647B68002283F838200023184629
:103628001437BD465DF8047B704700BF002C01408D
:1036380080B487B000AF7860396000233B61002315
:10364800FB6000237B617B681B6A23F480327B6804
:103658001A627B681B6AFB607B685B687B617B68BE
:103668005B6D3B613B6923F4803323F070033B615E
:103678003B681B683A6913433B61FB6823F40033DA
:10368800FB603B689B681B04FA681343FB607B681C
:10369800154A93420BD07B68144A934207D07B6843
:1036A800134A934203D07B68124A934209D17B693B
:1036B80023F480337B613B685B691B027A6913439F
:1036C8007B617B687A695A607B683A695A653B68AE
:1036D8005A687B689A657B68FA681A621C37BD4627
:1036E8005DF8047B704700BF002C0140004001409A
:1036F800004401400048014080B487B000AF7860C2
:10370800396000233B610023FB6000237B617B68F9
:103718001B6A23F480127B681A627B681B6AFB6051
:103728007B685B687B617B685B6D3B613B6923F011
:10373800807323F4E0433B613B681B681B023A69D2
:1037480013433B61FB6823F40013FB603B689B68F1
:103758001B05FA681343FB607B68154A93420BD03C
:103768007B68144A934207D07B68134A934203D07C
:103778007B68124A934209D17B6923F480237B61D9
:103788003B685B699B027A6913437B617B687A6952
:103798005A607B683A695A653B685A687B68DA659B
:1037A8007B68FA681A621C37BD465DF8047B70476F
:1037B800002C014000400140004401400048014005
:1037C80080B582B000AF78607B68002B01D10123FF
:1037D80043E07B6893F86930DBB2002B06D17B6845
:1037E800002283F86820786801F0A4F97B68242215
:1037F80083F869207B681B687A681268126822F06F
:1038080001021A60786800F0FFF90346012B01D124
:10381800012322E07B685B6A002B02D0786800F005
:1038280057FB7B681B687A681268526822F49042DA
:103838005A607B681B687A681268926822F02A02CC
:103848009A607B681B687A681268126842F0010205
:103858001A60786800F0DEFB034618460837BD4654
:1038680080BD00BF80B485B000AFF860B960134672
:10387800FB80FB6893F86930DBB2202B32D1BB6840
:10388800002B02D0FB88002B01D101232BE0FB6821
:1038980093F86830012B01D1022324E0FB68012250
:1038A80083F86820FB68BA68DA64FB68FA88A3F8CA
:1038B8005020FB68FA88A3F85220FB680022DA66D9
:1038C800FB68212283F86920FB68002283F86820BE
:1038D800FB681B68FA681268126842F080021A6076
:1038E800002300E0022318461437BD465DF8047B28
:1038F800704700BF80B485B000AFF860B960134668
:10390800FB80FB6893F86A30DBB2202B7AD1BB6866
:10391800002B02D0FB88002B01D1012373E0FB6848
:1039280093F86830012B01D102236CE0FB68012277
:1039380083F86820FB68BA685A65FB68FA88A3F8B8
:103948005820FB68FA88A3F85A20FB689B68B3F5EF
:10395800805F0ED1FB681B69002B05D1FB6840F224
:10396800FF12A3F85C2028E0FB68FF22A3F85C2084
:1039780023E0FB689B68002B0DD1FB681B69002BBB
:1039880004D1FB68FF22A3F85C2016E0FB687F22C5
:10399800A3F85C2011E0FB689B68B3F1805F0CD151
:1039A800FB681B69002B04D1FB687F22A3F85C200D
:1039B80003E0FB683F22A3F85C20FB680022DA667C
:1039C800FB68222283F86A20FB681B68FA68126881
:1039D800126842F480721A60FB681B68FA68126801
:1039E800926842F001029A60FB68002283F868201E
:1039F800FB681B68FA681268126842F020021A60B5
:103A0800002300E0022318461437BD465DF8047B06
:103A1800704700BF80B582B000AF78607B681B68D4
:103A2800DB6903F00103002B10D07B681B681B685F
:103A380003F48073002B09D07B681B6801221A628B
:103A48007B68DB6E43F001027B68DA667B681B6883
:103A5800DB6903F00203002B10D07B681B689B68AE
:103A680003F00103002B09D07B681B6802221A624D
:103A78007B68DB6E43F004027B68DA667B681B6850
:103A8800DB6903F00403002B10D07B681B689B687C
:103A980003F00103002B09D07B681B6804221A621B
:103AA8007B68DB6E43F002027B68DA667B681B6822
:103AB800DB6903F00803002B10D07B681B689B6848
:103AC80003F00103002B09D07B681B6808221A62E7
:103AD8007B68DB6E43F008027B68DA667B681B68EC
:103AE800DB6903F48013002B16D07B681B689B6886
:103AF80003F48003002B0FD07B681B684FF48012FF
:103B08001A627B68202283F869207B68202283F868
:103B18006A20786800F042FC7B681B68DB6903F068
:103B28002003002B09D07B681B681B6803F0200367
:103B3800002B02D0786800F0BBFB7B681B68DB6950
:103B480003F08003002B09D07B681B681B6803F017
:103B58008003002B02D0786800F03CFB7B681B6870
:103B6800DB6903F04003002B09D07B681B681B68E6
:103B780003F04003002B02D0786800F081FB7B68DB
:103B8800DB6E002B0AD07B68202283F869207B68D3
:103B9800202283F86A20786800F00EF80837BD46BE
:103BA80080BD00BF80B483B000AF78600C37BD46DD
:103BB8005DF8047B704700BF80B483B000AF7860C5
:103BC8000C37BD465DF8047B704700BF80B485B0F4
:103BD80000AF78600023FB600023BB607B6893F82C
:103BE8006930DBB2FB607B6893F86A30DBB2BB609C
:103BF800FB68DAB2BB68DBB21343DBB21846143792
:103C0800BD465DF8047B704790B587B000AF78601B
:103C18000023FB601023FB7500237B810023BB82FC
:103C28000023FB747B689A687B681B691A437B686E
:103C38005B691A437B68DB691343FB607B681A681E
:103C48007B681B6819689D4B0B40F9680B43136030
:103C58007B681B687A681268526822F440517A6857
:103C6800D2680A435A607B689A697B681B6A134367
:103C7800FB607B681B687A681268926822F430617E
:103C8800FA680A439A607B681B688D4A934221D17F
:103C98008C4B1B6B03F00303032B17D801A252F8BC
:103CA80023F000BFBD3C0008C93C0008CF3C000819
:103CB800C33C00080023FB750AE00223FB7507E0FC
:103CC8000423FB7504E00823FB7501E01023FB7552
:103CD80000BF11E07B681B687B4A934202D1002336
:103CE800FB7509E07B681B68784A934202D1002380
:103CF800FB7501E01023FB757B68DB69B3F5004FAA
:103D08006ED1FB7D082B57D801A252F823F000BFD3
:103D18003D3D0008593D0008753D0008C13D0008BB
:103D28008F3D0008C13D0008C13D0008C13D0008A5
:103D3800AB3D0008FEF772FE03465A007B685B68DD
:103D48005B081A447B685B68B2FBF3F3BB8236E01E
:103D5800FEF786FE03465A007B685B685B081A44D8
:103D68007B685B68B2FBF3F3BB8228E07B685B6827
:103D78005B0803F5740303F510537A685268B3FBC4
:103D8800F2F3BB821BE0FEF7D3FD03465A007B68C3
:103D98005B685B081A447B685B68B2FBF3F3BB8221
:103DA8000DE07B685B685B0803F580327B685B68C5
:103DB800B2FBF3F3BB8202E00123FB7400BFBB8AB2
:103DC80023F00F037B81BB8A03F00F035B109AB2C9
:103DD8007B8913437B817B681B687A89DA6068E09A
:103DE800FB7D082B62D801A252F823F0193E000887
:103DF800393E0008593E0008B53E0008793E0008E3
:103E0800B53E0008B53E0008B53E0008993E0008DA
:103E18007B681C68FEF702FE02467B685B685B08ED
:103E28001A447B685B68B2FBF3F39BB2E36040E043
:103E38007B681C68FEF714FE02467B685B685B08BB
:103E48001A447B685B68B2FBF3F39BB2E36030E033
:103E58007B681A687B685B685B0803F5F40303F505
:103E6800905379684968B3FBF1F39BB2D36020E0C3
:103E78007B681C68FEF75CFD02467B685B685B0834
:103E88001A447B685B68B2FBF3F39BB2E36010E013
:103E98007B681B687A685268520802F500417A68A4
:103EA8005268B1FBF2F292B2DA6002E00123FB74CD
:103EB80000BFFB7C18461C37BD4690BDF369FFEF79
:103EC8000038014000100240004400400048004013
:103ED80080B483B000AF78607B685B6A03F001034D
:103EE800002B0AD07B681B687A681268526822F433
:103EF80000317A68926A0A435A607B685B6A03F009
:103F08000203002B0AD07B681B687A681268526823
:103F180022F480317A68D26A0A435A607B685B6A05
:103F280003F00403002B0AD07B681B687A681268C8
:103F3800526822F480217A68126B0A435A607B68BF
:103F48005B6A03F00803002B0AD07B681B687A6859
:103F58001268526822F400417A68526B0A435A6028
:103F68007B685B6A03F01003002B0AD07B681B6830
:103F78007A681268926822F480517A68926B0A43D0
:103F88009A607B685B6A03F02003002B0AD07B6889
:103F98001B687A681268926822F400517A68D26BBA
:103FA8000A439A607B685B6A03F04003002B1AD0CF
:103FB8007B681B687A681268526822F480117A68F4
:103FC800126C0A435A607B681B6CB3F5801F0AD1D8
:103FD8007B681B687A681268526822F4C0017A68A4
:103FE800526C0A435A607B685B6A03F08003002BBB
:103FF8000AD07B681B687A681268526822F400212C
:104008007A68926C0A435A600C37BD465DF8047BA7
:10401800704700BF80B582B000AF78607B6800222F
:10402800DA667B681B681B6803F00803002B0CD05A
:1040380078684FF4001100224FF47A7300F02AF8E0
:104048000346002B01D0032320E07B681B681B6814
:1040580003F00403002B0CD078684FF48001002291
:104068004FF47A7300F016F80346002B01D00323AF
:104078000CE07B68202283F869207B68202283F883
:104088006A207B68002283F86820002318460837D6
:10409800BD4680BD80B586B000AFF860B9603B60B2
:1040A8001346FB71FCF79EFD7861FB79002B46D126
:1040B8003CE03B68B3F1FF3F38D03B68002B07D0AA
:1040C800FCF790FD02467B69D21A3B689A422DD9CB
:1040D800FB681B68FA681268126822F080021A608E
:1040E800FB681B68FA681268126822F020021A60DE
:1040F800FB681B68FA681268126822F480721A60FA
:10410800FB681B68FA681268926822F001029A60DC
:10411800FB68202283F86920FB68202283F86A2044
:10412800FB68002283F8682003234FE0FB681B68C4
:10413800DA69BB681A40BB689A42BAD145E03CE0EC
:104148003B68B3F1FF3F38D03B68002B07D0FCF742
:1041580049FD02467B69D21A3B689A422DD9FB6811
:104168001B68FA681268126822F080021A60FB68FD
:104178001B68FA681268126822F020021A60FB684D
:104188001B68FA681268126822F480721A60FB6869
:104198001B68FA681268926822F001029A60FB684C
:1041A800202283F86920FB68202283F86A20FB68B4
:1041B800002283F86820032308E0FB681B68DA699B
:1041C800BB681A40BB689A42BAD000231846183711
:1041D800BD4680BD80B485B000AF78607B6893F839
:1041E8006930DBB2212B44D17B68B3F85230002B05
:1041F80011D17B681B687A681268126822F0800205
:104208001A607B681B687A681268126842F040027C
:104218001A6000232EE07B689B68B3F5805F14D199
:104228007B681B69002B10D17B68DB6CFB607B68AB
:104238001B68FA681288C2F3080292B21A857B6872
:10424800DB6C9A1C7B68DA6409E07B681A687B6817
:10425800DB6C581C7968C8641B789BB213857B6833
:10426800B3F85230013B9AB27B68A3F8522000237E
:1042780000E0022318461437BD465DF8047B7047FA
:1042880080B582B000AF78607B681B687A68126876
:10429800126822F040021A607B68202283F86920A5
:1042A8007868FFF77FFC002318460837BD4680BDB5
:1042B80080B584B000AF78607B68B3F85C30FB8170
:1042C8007B6893F86A30DBB2222B59D17B689B68F4
:1042D800B3F5805F15D17B681B69002B11D17B6812
:1042E8005B6DBB607B681B689B8C9AB2FB89134033
:1042F8009AB2BB681A807B685B6D9A1C7B685A65AA
:104308000EE07B685B6D591C7A6851657A681268A3
:10431800928C92B2D1B2FA89D2B20A40D2B21A7051
:104328007B68B3F85A30013B9AB27B68A3F85A20ED
:104338007B68B3F85A30002B20D17B681B687A68F9
:104348001268126822F020021A607B681B687A687B
:104358001268126822F480721A607B681B687A6897
:104368001268926822F001029A607B68202283F822
:104378006A20786800F0E4FC00230AE0002308E0E3
:104388007B681B687A681268926942F008029A6131
:10439800022318461037BD4680BD00BF80B483B0E5
:1043A80000AF78600C37BD465DF8047B704700BFEE
:1043B80080B582B002AFFCF7D5FB00F027F800F01B
:1043C80027FA00F071F800F0A3F800F0E5F800F023
:1043D80029F900F08BF900F0EDF900F059F8054BD8
:1043E8000093054B019305480549064A064B00F022
:1043F80055FAFEE76C020020E0000020F8010020DA
:1044080024010020B80100206801002080B590B088
:1044180000AF0223BB610123BB621023FB620023B0
:104428007B6307F118031846FCF7C4FF0346002B0B
:1044380001D000F02FFA0F237B600023BB6000231C
:10444800FB6000233B6100237B613B1D1846002174
:10445800FEF770F80346002B01D000F01BFAFEF7B8
:10446800D1FA0246094BA3FB02239B091846FCF725
:10447800E5FD0420FCF7EEFD4FF0FF30002100229F
:10448800FCF7B2FD4037BD4680BD00BFD34D62107A
:1044980080B500AF262000210022FCF7A5FD2620CC
:1044A800FCF7BEFD80BD00BF80B500AF164B174AB4
:1044B8001A60154B10225A60134B00229A60124B57
:1044C8000022DA60104B00221A610F4B00225A6159
:1044D8000D4B00229A610C4B0022DA610A4B002234
:1044E8001A62094B00225A62074B00229A62064B55
:1044F8000022DA620448FCF781FB0346002B01D056
:1045080000F0C8F980BD00BF24010020006400400D
:1045180080B58CB000AF1F4B4FF080421A601D4B26
:1045280000225A601B4B00229A601A4B0022DA6064
:10453800184B00221A610123FB6000233B61012311
:104548007B610023BB610023FB6100233B620123E5
:104558007B620023BB620023FB6207F10C030D485A
:104568001946FEF743FB0346002B01D000F092F9F1
:1045780000233B600023BB603B4606481946FEF714
:1045880075FF0346002B01D000F084F93037BD4693
:1045980080BD00BFB801002080B58CB000AF1F4BB4
:1045A8001F4A1A601D4B00225A601C4B00229A6059
:1045B8001A4B4FF6FF72DA60184B00221A61032378
:1045C800FB6000233B6101237B610023BB61002367
:1045D800FB6100233B6201237B620023BB62002353
:1045E800FB6207F10C030D481946FEF7FFFA034674
:1045F800002B01D000F04EF900233B600023BB6084
:104608003B4606481946FEF731FF0346002B01D00A
:1046180000F040F93037BD4680BD00BF680100207A
:104628000004004080B592B000AF2E4B2E4A1A60AD
:104638002C4B00225A602B4B00229A60294B0022F7
:10464800DA60284B00221A61264B00225A6125485D
:10465800FEF728FA0346002B01D000F01BF9214889
:10466800FEF74CFA0346002B01D000F013F90023A3
:10467800FB6100233B6200237B620023BB620023B3
:10468800FB624FF400533B6300237B6300237B648E
:1046980007F11C0313481946FEF736FF0346002BA3
:1046A80001D000F0F7F860233B6000237B60002313
:1046B800BB600023FB6000233B6100237B61002378
:1046C800BB613B46074819460022FEF7B7FD034683
:1046D800002B01D000F0DEF8024800F0F1F948376D
:1046E800BD4680BD6C0200200044014080B592B0F8
:1046F80000AF2E4B2E4A1A602C4B00225A602B4BCF
:1047080000229A60294B0022DA60284B00221A61A5
:10471800264B00225A612548FEF7C4F90346002BB0
:1047280001D000F0B7F82148FEF7E8F90346002B5E
:1047380001D000F0AFF80023FB6100233B620023A7
:104748007B620023BB620023FB624FF400533B6390
:1047580000237B6300237B6407F11C03134819467D
:10476800FEF7D2FE0346002B01D000F093F8602339
:104778003B6000237B600023BB600023FB600023B9
:104788003B6100237B610023BB613B460748194618
:104798000022FEF753FD0346002B01D000F07AF803
:1047A800024800F08DF94837BD4680BDE000002082
:1047B8000048014080B500AF134B144A1A60124BF1
:1047C8004FF4E1325A60104B00229A600E4B0022DF
:1047D800DA600D4B00221A610B4B0C225A610A4B0E
:1047E80000229A61084B0022DA61074B00221A6204
:1047F800054B00225A620448FEF7E2FF0346002BED
:1048080001D000F047F880BDF801002000440040C6
:1048180080B588B000AF1D4A1C4B5B6943F4800328
:1048280053611A4B5B6903F48003BB60BB68174A8A
:10483800164B5B6943F400335361144B5B6903F413
:1048480000337B607B68114A104B5B6943F480231B
:1048580053610E4B5B6903F480233B603B680C4853
:10486800C0210022FCF78EFDC023FB6001233B61C1
:1048780000237B610023BB6107F10C030448194640
:10488800FCF710FC2037BD4680BD00BF0010024079
:104898000004004880B400AFFEE700BF80B584B0D4
:1048A80000AFF860B9607A603B60B86800F0CCF996
:1048B800F86800F013FA7868396800F07FFAB86988
:1048C800F96900F00DFB00F001F8FCE780B500AFD6
:1048D80000F06EF900F04CFB80BD00BF80B582B0DF
:1048E80000AF1E4A1D4B9B6943F0010393611B4BAC
:1048F8009B6903F001037B607B680320FCF76AFB7C
:104908006FF00B0000210022FCF76EFB6FF00A002D
:1049180000210022FCF768FB6FF00900002100224B
:10492800FCF762FB6FF0040000210022FCF75CFB3F
:104938006FF0030000210022FCF756FB6FF0010026
:1049480000210022FCF750FB4FF0FF30002100222D
:10495800FCF74AFB0837BD4680BD00BF0010024087
:1049680080B588B000AF78607B681B68114A9342B5
:104978001DD1114A104BDB6943F00073D3610E4B14
:10498800DB6903F00073BB60BB684FF4C053FB6086
:1049980002233B6100237B610323BB610923FB6185
:1049A80007F10C034FF090401946FCF77BFB2037CA
:1049B800BD4680BD006400400010024080B58AB04A
:1049C80000AF78607B681B68B3F1804F1DD1214A26
:1049D800204BDB6943F00103D3611E4BDB6903F015
:1049E80001033B613B6903237B610223BB61002315
:1049F800FB6100233B6201237B6207F114034FF044
:104A080090401946FCF74EFB21E07B681B68124A70
:104A180093421CD10F4A0F4BDB6943F00203D36169
:104A28000C4BDB6903F00203FB60FB6850237B61DE
:104A38000223BB610023FB6100233B6202237B62EC
:104A480007F114034FF090401946FCF72BFB283769
:104A5800BD4680BD001002400004004080B485B00F
:104A680000AF78607B681B68124A93420CD1124AE7
:104A7800114B9B6943F4003393610F4B9B6903F41B
:104A88000033FB60FB6810E07B681B680B4A9342AD
:104A98000BD1094A084B9B6943F480239361064B69
:104AA8009B6903F48023BB60BB681437BD465DF87F
:104AB800047B704700440140001002400048014058
:104AC80080B588B000AF78607B681B68164A93424F
:104AD80010D11023FB6002233B6100237B6100237C
:104AE800BB610123FB6107F10C0310481946FCF771
:104AF800D9FA15E07B681B680D4A934210D18023D0
:104B0800FB6002233B6100237B610023BB6101231F
:104B1800FB6107F10C034FF090401946FCF7C2FA0D
:104B28002037BD4680BD00BF004401400004004856
:104B38000048014080B588B000AF78607B681B688A
:104B4800114A93421DD1114A104BDB6943F40033DB
:104B5800D3610E4BDB6903F40033BB60BB6848F2DA
:104B68000403FB6002233B6101237B610323BB61D8
:104B78000723FB6107F10C034FF090401946FCF73F
:104B880091FA2037BD4680BD004400400010024025
:104B980080B500AFFCF718F8FCF778FA80BD00BFC5
:104BA80080B500AF0148FEF735FF80BDF801002051
:104BB80090B583B000AF204B1B7883F00103DBB2C4
:104BC800002B00D035E0FCF70DF878601B4B1B6814
:104BD8007A68D31A3B603B68092B2ADD174A7B6841
:104BE800136000F01DF900F063F903461C4600F05D
:104BF8006BF90346124821461A4600F0ADFE114BE8
:104C08001B78082B14D801A252F823F0394C00085D
:104C1800394C0008394C0008394C0008394C000858
:104C2800394C0008394C0008394C0008394C000848
:104C380000BF0C37BD4690BDC400002020010020F5
:104C4800387900080400002080B483B000AF786091
:104C5800034A7B6813600C37BD465DF8047B7047D8
:104C6800A801002080B584B000AFF860B9607A6010
:104C7800FB68012B02D0022B0AD013E0164B1A68EE
:104C88007B689BB21046B9681A46FEF7EBFD0CE04C
:104C9800114B1A687B689BB21046B9681A46FEF732
:104CA800E1FD02E04FF0FF3311E000BF0A4B1B6843
:104CB8001846FEF78BFF0346212BF7D0064B1B68DF
:104CC8001846FEF783FF0346232BEFD07B68184670
:104CD8001037BD4680BD00BF6802002080B582B095
:104CE80000AF7860074A7B68136000F00FF8054B47
:104CF8001B68184604490122FEF7FCFD0837BD462B
:104D080080BD00BF68020020B401002080B500AF5C
:104D1800074B00221A70074800211E2200F0AEF946
:104D2800054B01221A70054B00221A7080BD00BF86
:104D3800B5010020B0020020B4010020AC02002020
:104D480080B584B000AF7860174B1B78002B0CD16E
:104D58000023FB7306E0FB7B144A0021D154FB7B44
:104D68000133FB73FB7B1D2BF5D90F4B1B785A1CAA
:104D7800D1B20D4A11701A460D4B19780B4B995444
:104D88000B4B1B780A2B05D1074B00221A70094BD5
:104D980001221A70084B1B68184605490122FEF7C4
:104DA800A9FD1037BD4680BDB5010020B002002026
:104DB800B4010020AC0200206802002080B483B057
:104DC80000AF786039600E4A7B6813600D4A3B6813
:104DD80013600D4B00221A800C4B00221A800C4BDA
:104DE80000221A800B4B00221A800B4B00221A80DB
:104DF8000A4B00221A800C37BD465DF8047B7047C9
:104E080064010020AC010020F40100201C010020F6
:104E1800DC000020DE000020B0010020A4010020FA
:104E280080B483B000AF1A4B1B681B685B6AFB80B9
:104E3800184B1B681B685B6ABB80174B1B88FA887A
:104E4800D31A9BB29AB2154B1A80154B1B88BA8895
:104E5800D31A9BB29AB2134B1A80134B1B889AB27F
:104E68000E4B1B889BB213449BB29AB20E4B1A800E
:104E78000E4B1B889AB20B4B1B889BB213449BB2F8
:104E88009AB20A4B1A800C37BD465DF8047B70470E
:104E980064010020AC010020F4010020DC000020A7
:104EA8001C010020DE000020B0010020A401002029
:104EB80080B400AF034B1B881BB21846BD465DF893
:104EC800047B7047DC00002080B400AF034B1B88D4
:104ED8001BB21846BD465DF8047B7047DE00002013
:104EE80080B582B000AF786039600D4A7B68136086
:104EF8000C4A3B681360002000F016F8002000F010
:104F080025F8074B1B6818460021FDF72DFE054BB9
:104F18001B6818460021FDF727FE0837BD4680BDEF
:104F2800A8020020D800002080B483B000AF034658
:104F3800FB80054B1B681B68FA885A630C37BD4613
:104F48005DF8047B704700BFD800002080B483B0B0
:104F580000AF0346FB80054B1B681B68FA885A6341
:104F68000C37BD465DF8047B704700BFA8020020DF
:104F7800B0B58AB000AF134B1B78002B1ED0114B75
:104F880000221A70104B3C461D4628686968AA68BA
:104F9800EB680FC428696969AA6907C4AB8B2380C9
:104FA8003B461846094900F023FD7862786A00F00C
:104FB8003AF838620648396A00F0CEFC2837BD4610
:104FC800B0BD00BFAC020020B0020020407900084C
:104FD80044790008DFF834D0002103E00C4B5B581B
:104FE800435004310B480C4B42189A42F6D30B4AF3
:104FF80002E0002342F8043B094B9A42F9D3FBF73D
:1050080067FD00F015F8FFF7D3F9FEE70030002040
:10501800587C000800000020A8000020A8000020FC
:10502800D4020020FEE700210A2200F0C5BD0000DE
:1050380070B50E4B0E4CE41AA41000251E46A5426E
:1050480004D056F8253098470135F8E702F064FC9B
:10505800084C094BE41AA41000251E46A54204D0AA
:1050680056F8253098470135F8E770BD507C0008A0
:10507800507C0008547C0008507C00080244034619
:10508800934202D003F8011BFAE770472DE9FF4766
:1050980055EC104B0D9FDDF830A0002D0E469146C3
:1050A8001946B8BF22462B4627F02007BBBF05F19B
:1050B80000431D4600232D23B8BF1446462F0B700E
:1050C80003D0452F03D1013601E0032100E002217E
:1050D80002AB009303AB019345EC104B32465346A9
:1050E80000F006FE472F804602D119F0010F26D0A6
:1050F800462F08EB060911D198F80030302B0AD159
:105108002046294600220023FBF788FC18B9C6F17F
:105118000106CAF80060DAF80030994420462946AA
:1051280000220023FBF77AFC08B1CDF80C90039B12
:105138004B4504D25A1C039230221A70F7E7039B9E
:105148000E9AC8EB03034046136004B0BDE8F0872D
:1051580073B503460029B8BF494203F8022BB4BF10
:105168002D222B220929427019DD0DF1070426464C
:105178000A2291FBF2F502FB15113031092D04F8D2
:10518800011D2946F4DC3031651E04F8011CB542C6
:105198001A460AD215F8012B03F8012BF7E7302439
:1051A8001A46214402F8024B5970101A02B070BD19
:1051B8002DE9F04F8BB08B4615461E46149F0446CA
:1051C80001F01EFCD0F800A0504600F009FC0023B6
:1051D80008933B680590073323F0070303F108029F
:1051E8009BF818803A60D3E90023CBE912239BEDA2
:1051F800120B00F0C9FB01281BD1DBE912010022C8
:105208000023FBF715FC10B12D238BF84330B54B69
:10521800B54FB8F1470F88BF1F460323CBF81030AE
:10522800DBF8003023F00403CBF800304FF000091E
:105238009FE09BED120B00F0A7FBDBF8002068B99C
:10524800AA4BAB4F22F00402B8F1470F88BF1F46A4
:105258000323CBF81030CBF80020E7E7DBF8041085
:105268004F1C9BED120B01D1062309E0B8F1670F23
:1052780002D0B8F1470F05D1002940F0C1810123C0
:10528800CBF8043007AB8DE8080108AB42F4806224
:10529800029300230393CBF800200DF11B03204653
:1052A800DBF80410FFF7F2FE08F0DF03472B074690
:1052B8000AD1079BD81C03DBDBF80420934237DDB7
:1052C800A8F102085FFA88F8B8F1650F079915D8B0
:1052D800013942460BF150000791FFF739FF089A50
:1052E8008318012A8146CBF8103003DCDBF8002054
:1052F800D10738D50133CBF8103034E0B8F1660F58
:1053080018D10029DBF8043009DDCBF810101BB9DF
:10531800DBF80020D20721D501330B441CE01BB970
:10532800DBF80020D00701D5023315E0012313E094
:105338004FF06708079B089A934207DBDBF80020C9
:10534800CBF81030D10709D5013305E0002BD4BFC5
:10535800C3F1020301231344CBF81030079BCBF8A9
:1053680058304FF000099DF81B3013B12D238BF8EE
:10537800433000962046594609AA2B4600F056F9B4
:10538800013002D14FF0FF304CE1DBF800305A0514
:1053980005D4204629463A46DBF8103008E1B8F132
:1053A800650F40F2D080DBE9120100220023FBF7F1
:1053B80035FB50B3204629464E4A0123B0470130F9
:1053C800E0D0089B079A9A4209DBDBF80030D8073F
:1053D80005D4DBF800309F0700F1108107E1204673
:1053E80029465246059BB0470130CBD00027089B81
:1053F800013B9F42EDDA204629460BF11A020123B0
:10540800B0470130BED00137F1E7079B002B29DCFC
:1054180020462946374A0123B0470130B2D0079BBE
:105428002BB9089B1BB9DBF80030D907D1D520462A
:1054380029465246059BB0470130A3D04FF00008DB
:10544800079B5B4298452046294608DA0BF11A0269
:105458000123B047013095D008F10108F0E73A463A
:10546800089BA5E0DBF85820089B9A42A8BF1A467B
:10547800002A914602DC4FF0000812E02046294637
:105488003A464B46B0470130F5D17BE720462946DE
:105498000BF11A020123B04701303FF473AF08F152
:1054A8000108DBF85830B9F1000FACBFC9EB0302B3
:1054B8001A469045EADB07EB0308079A089B9A42CD
:1054C8001ADBDBF80030DA0716D4089A1744C8EB61
:1054D8000703079FD21B9342A8BF1346002B1F4602
:1054E80012DC18E09879000894790008A07900087F
:1054F8009C790008A4790008204629465246059B55
:10550800B0470130E1D13DE7204629464246B04741
:1055180001303FF437AF4FF000080AE02046294633
:105528000BF11A020123B04701303FF42BAF08F109
:105538000108079A089B002FA3EB0203A8BFDB1BF7
:105548009845EBDB45E7089A012A01DCDB0736D5ED
:10555800204629463A460123B04701303FF412AFAE
:10556800204629465246059BB04701303FF40AAF12
:10557800DBE9120100220023FBF750FAE8B9089B87
:10558800204629467A1C013B1DE0204629460BF19E
:105598001A020123B04701303FF4F4AE0137089BEB
:1055A800013B9F42F1DB204629460BF150024B4656
:1055B800B04701307FF40DAFE4E60027EFE720465F
:1055C80029463A460123B0470130ECD1DAE62046B5
:1055D80029460BF119020123B04701303FF4D2AE3E
:1055E8000137DBF80C30099A9B1A9F42EFDBDBF896
:1055F8000C00099B9842B8BF184613E00027F0E753
:1056080007AB8DE8080108AB42F4806202930023DF
:105618000393CBF8002020460DF11B03FFF736FD5E
:10562800074646E60BB0BDE8F08F00BF2DE9F8430A
:1056380091461F468A680B69DDF820809342B8BFFF
:105648001346C9F8003091F8432006460C4612B1BB
:105658000133C9F800302368990642BFD9F80030F1
:105668000233C9F80030256815F006051CD094F8F7
:1056780043302268003318BF012392061FD5E11872
:105688005A1C302081F84300224494F8451082F8CF
:105698004310023313E03046394604F1190201235E
:1056A800C047013007D00135E368D9F800209B1ABC
:1056B8009D42F0DBDBE74FF0FF30BDE8F883304672
:1056C800394604F14302C0470130F4D02268D9F8C2
:1056D8000050E36802F00602042A08BF5D1B226935
:1056E800A3680CBF25EAE57500259342C4BF9B1A41
:1056F800ED184FF00009A9450ADA3046394604F199
:105708001A020123C0470130D5D009F10109F2E797
:105718000020BDE8F88300002DE9FF410C4617463C
:10572800227E6E2A984606460A9B01F1430100F044
:10573800AF8012D8632A23D00AD8002A00F0BC8090
:10574800582A40F0CB8084F84520DFF804E257E07F
:10575800642A1ED0692A1CD0C0E0732A00F0B080E9
:1057680009D86F2A2ED0702A40F0B880226842F0FB
:10577800200222603FE0752A24D0782A3BD0ADE091
:105788001A68111D1960136884F8423004F1420543
:10579800A8E020681A6810F0800F02D0101D186069
:1057A80008E010F0400F02F10400186002D0B2F9CE
:1057B800003000E01368002B3EDA2D225B4284F8AB
:1057C800432039E020681A6810F0800F02D0101DBD
:1057D800186007E010F0400F02F10400186001D0D3
:1057E800138800E01368227EDFF864E16F2A0CBF9B
:1057F80008220A221CE07822DFF858E184F84520C4
:105808002268186812F0800F00F104051D6003D1AA
:10581800550601D5038800E00368D00744BF42F06D
:10582800200222601BB9226822F020022260102286
:10583800002084F8430002E0DFF814E10A226568DA
:10584800A560002DA2BF206820F00400206003B9E5
:1058580065B10D46B3FBF2F002FB10331EF80330BE
:1058680005F8013D03460028F4D100E00D46082A5A
:105878000BD12368DA0708D5236962689A42DEBF2C
:10588800302305F8013C05F1FF35491B21612EE065
:1058980025681A68606915F0800F03D0151D1D6012
:1058A800136808E015F0400F02F104051D60136845
:1058B80001D0188000E01860002323610D4616E02F
:1058C8001A68111D1960156862682846002101F0E0
:1058D800A3F808B1401B6060636804E004F1420566
:1058E80084F8422001232361002384F84330CDF853
:1058F80000803046214603AA3B46FFF797FE013059
:1059080002D14FF0FF301FE0304639462A4623695E
:10591800C0470130F5D023689B0705D4E068039B96
:105928009842B8BF18460FE00025E368039A9B1A0F
:105938009D42F3DA3046394604F119020123C04783
:105948000130DED00135F0E704B0BDE8F08100BFDA
:10595800A6790008B77900080FB40A4B13B51C687C
:1059680024B1A36913B9204600F0C2FF05AB204655
:10597800A168049A019301F019FC02B0BDE8104037
:1059880004B070476800002053EC102B33F000423D
:1059980010B510EE100A1BD00F49A3F580148C42E5
:1059A80010D903F1FF430C4903F5E0038B4209D9F1
:1059B800B2F5801F08D3094B9A4207D1B0FA80F09C
:1059C800400910BD042010BD032010BD002010BDEB
:1059D8000028E6D1022010BDFFFFDF7F0000F07F26
:1059E800034613F8012B002AFBD1181A0138704717
:1059F800174B2DE9F0411D68AC6D06460F46FCB902
:105A0800502001F001F8A8658460AB6D0460446023
:105A18001C61DC60AB6D9C615C61AB6DDC629C629F
:105A2800AB6D5C631C63AB6DDC639C63AB6D5C64EA
:105A38001C64AB6DDC649C64AB6D1C77AB6D5C6205
:105A480030463946AA6D0123BDE8F04100F002B89E
:105A580068000020F0B548B9106838B9F0BD17F8EB
:105A6800016B5EB1B542FAD12BB1204604460F4610
:105A780014F8015BF3E714600370F0BD4DB91560CD
:105A88002846F0BD17F8016BAE4207D0002EF9D1B9
:105A98001C4623460F4613F8015BF3E715B10021B6
:105AA800217000E02B461360F0BD00002DE9F0479F
:105AB800404CD4F800900F463D4615F801EB09EB31
:105AC8000E04667806F0080404F0FF060CB12F46B1
